:020000040000FA
:0400000007EF00F016
:0A00080042829FED09F0AEEF09F00F
:10060000004154442B202B393137303230313232D3
:100610003334360D0041542B434F50533F0D0041AE
:10062000542B4347534E0D0041542B4353510D005F
:10063000415445300D004154410D004154480D00D6
:0106400000B9
:100642002B50800B346E2B502B24366E2AAE2CEF9F
:1006520003F02EEF03F02FEF03F036803650D8B4BC
:1006620035EF03F037EF03F04CEF03F03628D8A450
:100672003DEF03F03FEF03F047EF03F0000E286E6B
:10068200000E296E000E2A6E000E2B6E2A8E000EB0
:100692002B6E54EF03F0000E286E000E296E000E32
:1006A2002A6E000E2B6E2F50800B356E345035188B
:1006B200D8B45EEF03F060EF03F061EF03F0348C27
:1006C2002F502F24356E2EAE69EF03F06BEF03F03F
:1006D2006CEF03F035803550D8B472EF03F074EF4D
:1006E20003F089EF03F03528D8A47AEF03F07CEF0A
:1006F20003F084EF03F0000E2C6E000E2D6E000E40
:100702002E6E000E2F6E2E8E000E2F6E91EF03F0C6
:10071200000E2C6E000E2D6E000E2E6E000E2F6E31
:100722003650355CD8B098EF03F09AEF03F0C1EF82
:1007320003F034AC9FEF03F0A1EF03F0A3EF03F05B
:10074200800E341A36C037F035C036F037C035F077
:1007520028C037F02CC028F037C02CF029C037F061
:100762002DC029F037C02DF02AC037F02EC02AF054
:1007720037C02EF02BC037F02FC02BF037C02FF030
:10078200000E376E365035C030F0316A305E000EE2
:10079200315A31BED6EF03F0315009E11A0E305C06
:1007A200D8A0D6EF03F0D8EF03F00FEF04F02850F3
:1007B20029102A102B10D8A4E1EF03F0E4EF03F084
:1007C200010EE5EF03F0000E376E000E286E000EEC
:1007D200296E000E2A6E000E2B6E35C036F018EF11
:1007E20004F037A0F7EF03F0F9EF03F0FFEF03F0A7
:1007F200D89037300109376E01EF04F0D8903732C4
:1008020028A006EF04F008EF04F009EF04F0378E99
:100812002B342B322A3229322832362A3550365C92
:10082200D8A016EF04F018EF04F0F2EF03F034BC96
:100832001DEF04F01FEF04F05FEF04F03650D8A470
:1008420025EF04F027EF04F031EF04F0000E286EDC
:10085200000E296E000E2A6E000E2B6E80EF05F040
:100862002C5028262D5029222E502A222F502B225E
:100872002BA03EEF04F040EF04F0ECEF04F037A0C1
:1008820045EF04F047EF04F04DEF04F0D890373015
:100892000109376E4FEF04F0D890373228A054EF99
:1008A20004F056EF04F057EF04F0378E2B342B325E
:1008B2002A3229322832362AECEF04F02C50285CF6
:1008C2002D5029582E502A582B50800A306E2F5006
:1008D200800A3058D8B070EF04F072EF04F09DEF48
:1008E20004F028502C5C306E29502D58316E2A505D
:1008F2002E58326E2B502F58336EFF0E3024286E36
:10090200FF0E3120296EFF0E32202A6EFF0E332099
:100912002B6E800E341A376C3750D8A493EF04F044
:1009220095EF04F0A5EF04F0010E2826000E29220F
:100932002A222B22A5EF04F02C50285E2D50295A92
:100942002E502A5A2F502B5A285029102A102B1079
:10095200D8A4AEEF04F0B0EF04F0E5EF04F03750A6
:10096200D8A4B6EF04F0B8EF04F0E5EF04F0000EFF
:10097200286E000E296E000E2A6E000E2B6E80EF7E
:1009820005F0D890283629362A362B3637AECCEFEA
:1009920004F0CEEF04F0CFEF04F0288037A0D4EFBC
:1009A20004F0D6EF04F0DAEF04F0D8803736DCEF4B
:1009B20004F0D89037363650D8B4E2EF04F0E4EFC2
:1009C20004F0E5EF04F036062AAEEAEF04F0ECEFAD
:1009D20004F0C2EF04F0000E356E37AEF3EF04F010
:1009E200F5EF04F00DEF05F037C030F07F0E301652
:1009F200D8B4FEEF04F000EF05F004EF05F0010EAD
:100A0200356E0DEF05F028A009EF05F00BEF05F0AC
:100A12000DEF05F000EF05F03550D8B413EF05F0F7
:100A220015EF05F040EF05F0010E2826000E2922F1
:100A32002A222B222BA020EF05F022EF05F040EF17
:100A420005F028C030F029C031F02AC032F02BC0A6
:100A520033F03334333232323132303230C028F074
:100A620031C029F032C02AF033C02BF03628D8B476
:100A72003DEF05F03FEF05F040EF05F0362A36284E
:100A8200D8B446EF05F048EF05F050EF05F03650C8
:100A9200D8A44EEF05F050EF05F062EF05F0000E1E
:100AA200286E000E296E000E2A6E000E2B6E365036
:100AB200D8A45EEF05F060EF05F062EF05F0000EDE
:100AC200346E36A067EF05F069EF05F06CEF05F0C4
:100AD2002A8E6DEF05F02A9ED89036302B6E34AEFA
:100AE20075EF05F077EF05F078EF05F02B8E28C053
:100AF20028F029C029F02AC02AF02BC02BF01200BE
:100B02001250800B1F6E12501224266E11AE8CEF03
:100B120005F08EEF05F08FEF05F026802650D8B451
:100B220095EF05F097EF05F0ACEF05F02628D8A475
:100B32009DEF05F09FEF05F0A7EF05F0000E0F6E99
:100B4200000E106E000E116E000E126E118E000E4F
:100B5200126EB4EF05F0000E0F6E000E106E000E56
:100B6200116E000E126E1650800B1F1A16501624AC
:100B7200276E15AEBFEF05F0C1EF05F0C2EF05F02D
:100B820027802750D8B4C8EF05F0CAEF05F0DFEF91
:100B920005F02728D8A4D0EF05F0D2EF05F0DAEF60
:100BA20005F0000E136E000E146E000E156E000E90
:100BB200166E158E000E166EE7EF05F0000E136E20
:100BC200000E146E000E156E000E166E13501410E9
:100BD20015101610D8A4F0EF05F0F2EF05F00AEFA9
:100BE20006F0000E0F6E000E106E000E116E000E5B
:100BF200126E800E11127F0E12121F5012120FC0AF
:100C02000FF010C010F011C011F012C012F04DEF31
:100C120007F02650D8A410EF06F012EF06F01CEFF2
:100C220006F0000E0F6E000E106E000E116E000E1A
:100C3200126E4DEF07F0275026C017F0186A175EA4
:100C4200000E185A7F0E1724206E000E1820216EF7
:100C52000FC01BF010C01CF011C01DF012C01EF01E
:100C6200000E0F6E000E106E000E116E000E126E50
:100C7200000E226E000E236E000E246E000E256EF4
:100C8200000E276E7DEF06F02750D8B44BEF06F02A
:100C92004DEF06F064EF06F0D8901B361C361D3679
:100CA2001E36D8900F3610361136123625AE5CEF4E
:100CB20006F05EEF06F05FEF06F00F80D890223666
:100CC20023362436253613501B5C14501C581550FD
:100CD2001D5816501E58D8A071EF06F073EF06F09B
:100CE2007CEF06F0258C13501B5E14501C5A1550D5
:100CF2001D5A16501E5A272A190E276483EF06F032
:100D020085EF06F045EF06F01B501C101D101E105B
:100D1200D8B48EEF06F090EF06F0A8EF06F022802E
:100D2200A8EF06F0D8900F3610361136123625AEDF
:100D32009DEF06F09FEF06F0A0EF06F00F80D8902F
:100D420022362336243625362006D8A0210611AEB7
:100D5200ADEF06F0AFEF06F093EF06F0000E276E50
:100D620025AEB6EF06F0B8EF06F0DCEF06F0FF0EA8
:100D72002214176EFF0E2314186EFF0E2414196E20
:100D82007F0E25141A6E1750181019101A10D8B4A5
:100D9200CDEF06F0CFEF06F0D3EF06F0010E276E8F
:100DA200DCEF06F00FA0D8EF06F0DAEF06F0DCEF8A
:100DB20006F0CFEF06F02750D8B4E2EF06F0E4EFEA
:100DC20006F008EF07F0010E0F26000E1022112286
:100DD200122212A0EFEF06F0F1EF06F008EF07F093
:100DE2000FC017F010C018F011C019F012C01AF09D
:100DF2001A341A3219321832173217C00FF018C0CB
:100E020010F019C011F01AC012F0204A212A21BE96
:100E120013EF07F0215008E12028D8A013EF07F0C4
:100E220015EF07F020EF07F0000E216E2068000E8C
:100E32000F6E000E106E000E116E000E126E21BEAD
:100E42002DEF07F0215006E12004D8B02BEF07F078
:100E52002DEF07F03BEF07F0000E216E000E206E23
:100E6200000E0F6E000E106E000E116E000E126E4E
:100E7200000E1F6E20C026F026A042EF07F044EFBE
:100E820007F047EF07F0118E48EF07F0119ED89058
:100E92002630126EFEEF05F01200096E0950D8B42A
:100EA20055EF07F057EF07F079EF07F004BE5EEF5A
:100EB20007F05CEF07F079EF07F001C005F002C020
:100EC20006F003C007F004C008F0051E061E071E48
:100ED200081E052A000E06220722082205C00BF072
:100EE20006C00CF007C00DF008C00EF081EF07F04D
:100EF20001C00BF002C00CF003C00DF004C00EF0F4
:100F02000150021003100410D8A48AEF07F08CEFEE
:100F120007F096EF07F0000E016E000E026E000E53
:100F2200036E000E046E27EF08F0960E0A6EA0EF15
:100F320007F00A2AD8900E320D320C320B32000E14
:100F42000B14056E000E0C14066E000E0D14076EC7
:100F5200FE0E0E14086E0550061007100810D8A4D5
:100F6200B5EF07F0B7EF07F09AEF07F0C5EF07F01C
:100F72000A2A010E0B26000E0C220D220E22D890F8
:100F82000E320D320C320B32000E0B14056E000EB7
:100F92000C14066E000E0D14076EFF0E0E14086E72
:100FA2000550061007100810D8A4DAEF07F0DCEF9E
:100FB20007F0B9EF07F0E4EF07F00A06D8900B3616
:100FC2000C360D360E360DBEE9EF07F0EBEF07F0EB
:100FD200F3EF07F0020E0A60F1EF07F0F3EF07F00C
:100FE200DEEF07F00AB0F8EF07F0FAEF07F0FBEFD9
:100FF20007F00D9ED8900A320AC005F0066A076A09
:10100200086A05C008F0076A066A056A05500B12ED
:1010120006500C1207500D1208500E120950D8B487
:1010220015EF08F017EF08F01FEF08F004BE1EEFEF
:1010320008F01CEF08F01FEF08F00E8E0BC001F055
:101042000CC002F00DC003F00EC004F01200000E3E
:10105200416E000E406E9380938A938C938E800E25
:10106200386E250E396E000E3A6E000E3B6E3AEC6B
:1010720009F0720ED36ED08EF28EF086F090F08C64
:1010820040044110D8A448EF08F04AEF08F041EFBD
:1010920008F081AA4FEF08F051EF08F086EF08F050
:1010A20081AC56EF08F058EF08F06FEF08F081AE10
:1010B2005DEF08F05FEF08F067EF08F0360E026EA2
:1010C200060E036E84EC09F041EF08F03B0E026E4F
:1010D200060E036E84EC09F041EF08F081AE74EF66
:1010E20008F076EF08F07EEF08F0010E026E060EB1
:1010F200036E84EC09F041EF08F01F0E026E060E3B
:10110200036E84EC09F041EF08F081AC8BEF08F03C
:101112008DEF08F0A4EF08F081AE92EF08F094EFA3
:1011220008F09CEF08F0150E026E060E036E84ECBA
:1011320009F041EF08F0280E026E060E036E84ECF1
:1011420009F041EF08F081AEA9EF08F0ABEF08F02B
:10115200B3EF08F0300E026E060E036E84EC09F057
:1011620041EF08F041EF08F007EF00F003340434D8
:101172000A6E0A50D8A4C0EF08F0C2EF08F0CCEF14
:1011820008F0000E016E000E026E000E036E000EDD
:10119200046E39EF09F001C005F002C006F003C089
:1011A20007F004C008F0200EDCEF08F0D8900832F7
:1011B200073206320532E82ED7EF08F00550096EE5
:1011C200038EFF0E0116FF0E0216FF0E0316000E0F
:1011D2000416960E0A5E0ABEF3EF08F0F1EF08F06D
:1011E20009EF09F00A50800A970FD8B0FBEF08F018
:1011F200FDEF08F0FFEF08F0C2EF08F0D8900432DC
:101202000332023201320A3EFFEF08F021EF09F009
:101212001F0E0A640FEF09F011EF09F019EF09F040
:10122200C2EF08F0D89001360236033604360A06B9
:101232000A50D8A41FEF09F021EF09F013EF09F0CB
:101242000950D8B427EF09F029EF09F031EF09F07E
:10125200041E031E021E016C000E0222032204223F
:1012620001C001F002C002F003C003F004C004F0A8
:101272001200949C948E38C001F039C002F03AC03A
:1012820003F03BC004F0010E4EEC07F001C013F076
:1012920002C014F003C015F004C016F0000E0F6E69
:1012A200240E106EF40E116E470E126E81EC05F0D4
:1012B2000FC028F010C029F011C02AF012C02BF084
:1012C200000E2C6E000E2D6E800E2E6EBF0E2F6E37
:1012D20021EC03F028C03CF029C03DF02AC03EF0CA
:1012E2002BC03FF03CC001F03DC002F03EC003F015
:1012F2003FC004F0B7EC08F00150AF6E200EAC6EA8
:10130200900EAB6E120090EF09F002C0F6FF03C020
:10131200F7FF0800F550B9EC09F0024A032A02C0AF
:10132200F6FF03C0F7FF0800F5500009D8A49CEFB0
:1013320009F09EEF09F086EF09F012000600F0A016
:10134200A5EF09F0A7EF09F0ACEF09F0000E416E2E
:10135200010E406EF09042921100416A406A429042
:101362004292000EF86E060EF76E000128EF08F0AA
:10137200016E9EA8BFEF09F0C1EF09F0BAEF09F0C4
:0613820001C0ADFF1200E6
:020000040020DA
:08000000FFFFFFFFFFFFFFFF00
:020000040030CA
:0E000000FF08191EFF8184FF0FC00FE00F40A4
:00000001FF
